:100000000C942A000C943F000C943F000C943F0089
:100010000C943F000C943F000C943F000C943F0064
:100020000C943F000C943F000C943F000C943F0054
:100030000C943F000C943F000C943F000C943F0044
:100040000C943F000C943F000C943F000C943F0034
:100050000C943F0011241FBECFE5D8E0DEBFCDBF1A
:1000600010E0A0E6B0E0E4E3F2E002C005900D92FB
:10007000AC37B107D9F70E9402010C9418010C9417
:100080000000C69A00C0C6980895CF93DF93D82F7A
:10009000662311F0C49A01C0C498C59887B38F60D5
:1000A00087BBC8B3C07F8D2F82958F708C2B88BB88
:1000B0000E944100DF70DC2BD8BB0E944100CF6062
:1000C000C8BBDF91CF910895882311F0C49A01C075
:1000D000C498C59A87B3807F87BBC69A00C096B381
:1000E000C69800C0C69A00C026B32F70892F82958B
:1000F000807FC698822B089580E00E946400882348
:10010000DCF388E090E00197F1F780E00E94640062
:100110000895CF93C82F0E947C0060E08C2F0E942E
:100120004500CF910895811105C080E8860F0E9497
:100130008900089580EC860F0E948900089581E06F
:100140000E948900089582E00E9489000895CF935B
:10015000C82F0E947C00CA3049F4803410F080E03F
:1001600001C080E480580E94890004C061E08C2FA7
:100170000E944500CF910895CF93DF93EC01219623
:10018000FC018081882329F00E94A70089918111B8
:10019000FBCFDF91CF9108951F93CF93DF93182F5B
:1001A00087B38F6787BB80E09AEF0197F1F7C19A19
:1001B000C09A0E94410080E09EE40197F1F70E94FE
:1001C0004100C0E0D1E0CE010197F1F70E9441006B
:1001D000CE010197F1F7C0980E9441002197F1F7F5
:1001E00088E20E94890088E00E9489000E949F00A6
:1001F00086E00E948900812F0E948900DF91CF91C3
:100200001F91089517BA18BA8EE00E94CC000E9480
:100210009F000E94A30080E690E00E94BC0060E086
:1002200081E00E9493008AE690E00E94BC00FFCF2C
:04023000F894FFCF70
:1002340068656C6C6F2069276D00616D6972616C13
:0C02440069206D616E736F7572690000B7
:00000001FF
