:100000000C942A000C9447000C9447000C94470071
:100010000C9447000C9447000C9447000C94470044
:100020000C9447000C9455000C9447000C94470026
:100030000C9447000C9447000C9447000C94470024
:100040000C9447000C9447000C9447000C94470014
:100050000C94470011241FBECFE5D8E0DEBFCDBF12
:1000600010E0A0E6B0E0E8E1F1E002C005900D92FA
:10007000A436B107D9F720E0A4E6B0E001C01D9294
:10008000A736B207E1F70E9484000C948A000C9412
:1000900000008EB582608EBD1DBC1CBC89B784601B
:1000A00089BF78941092660008951F920F920FB640
:1000B0000F9211248F939F93EF93FF93809166008B
:1000C0008F5F809366008091640090916500019637
:1000D00083709078992324F401978C6F9F6F019619
:1000E00090936500809364009A9905C0FC01E05AE2
:1000F000FF4F80818BBBFF91EF919F918F910F906C
:100100000FBE0F901F9018958FEF8ABB14BA0E94F4
:080110004900FFCFF894FFCF76
:0401180001020408D4
:00000001FF
