:100000000C942A000C943F000C943F000C943F0089
:100010000C943F000C943F000C943F000C943F0064
:100020000C943F000C943F000C943F000C943F0054
:100030000C943F000C943F000C943F000C943F0044
:100040000C943F000C943F000C943F000C943F0034
:100050000C943F0011241FBECFE5D8E0DEBFCDBF1A
:1000600010E0A0E6B0E0EAEFF0E002C005900D92EB
:10007000A437B107D9F70E9441000C947B000C947F
:100080000000CF93DF93CDB7DEB764970FB6F89437
:10009000DEBF0FBECDBF84E1E0E6F0E0DE011196E9
:1000A00001900D928A95E1F78FEF81BB84BB85E0CB
:1000B0008EBD8AE196E09BBD8ABD1DBC1CBC9FE441
:1000C0009E012B5E3F4F08B604FEFDCF95BBFE019F
:1000D00031968081329682BBAFE1BEE41197F1F791
:1000E00000C00000E217F307A1F71DBC1CBC88B7D5
:0A00F000806188BFE8CFF894FFCFCD
:1000FA004000790024003000190012000200780044
:04010A0000001000E1
:00000001FF
