:100000000C942A000C9447000C9447000C94470071
:100010000C9447000C9447000C9447000C94470044
:100020000C9447000C9447000C9447000C94470034
:100030000C9447000C9447000C9447000C94470024
:100040000C9447000C9447000C9447000C94470014
:100050000C94470011241FBECFE5D8E0DEBFCDBF12
:1000600010E0A0E6B0E0E4EEFBE002C005900D92E7
:10007000AC38B107D9F720E0ACE8B0E001C01D9280
:10008000A239B207E1F70E9451000C94F0050C94DC
:10009000000087B9369A349BFECF349A84B195B16B
:1000A0000895CF93DF93CDB7DEB72A970FB6F894B4
:1000B000DEBF0FBECDBF10BC83E389B91BB888E09B
:1000C0008AB986E880BD8FEF84BB1ABA1BBA17BA0B
:1000D00018BA17B882E886B910BE8EE00E946A018D
:1000E0000E943D010F2EF0E68F2EF0E09F2EF02DA6
:1000F0008E010F5F1F4F80E00E944900BC01990FE5
:10010000880B990B0E944A022CEB34E743E050E441
:100110000E94A0010E9412026B017C015B01CB01D5
:1001200001969F938F939F928F921F930F930E949C
:1001300006030E943D010E94410183E690E00E9477
:100140005A016DE080E00E943101C8010E945A010D
:10015000C8010E94D6020F900F900F900F900F9041
:100160000F9088E1C816D10444F460E081E00E9459
:10017000310180E790E00E945A0198E1C91AD10844
:1001800080E1C816D10440F460E081E00E943101B2
:1001900089E790E00E945A0198E2A916B10444F060
:1001A00060E081E00E94310182E890E00E945A0103
:1001B00083E294EF0197F1F700C000009CCFC69A4C
:1001C00000C0C6980895CF93DF93D82F662311F00F
:1001D000C49A01C0C498C59887B38F6087BBC8B361
:1001E000C07F8D2F82958F708C2B88BB0E94DF0083
:1001F000DF70DC2BD8BB0E94DF00CF60C8BBDF9173
:10020000CF910895882311F0C49A01C0C498C59A6B
:1002100087B3807F87BBC69A00C096B3C69800C0DC
:10022000C69A00C026B32F70892F8295807FC6980A
:10023000822B089580E00E9402018823DCF388E08D
:1002400090E00197F1F780E00E9402010895CF93BA
:10025000C82F0E941A0160E08C2F0E94E300CF910A
:100260000895811105C080E8860F0E942701089536
:1002700080EC860F0E942701089581E00E942701EB
:10028000089582E00E9427010895CF93C82F0E940D
:100290001A01CA3049F4803410F080E001C080E4D3
:1002A00080580E94270104C061E08C2F0E94E30067
:1002B000CF910895CF93DF93EC012196FC018081CB
:1002C000882329F00E94450189918111FBCFDF919C
:1002D000CF9108951F93CF93DF93182F87B38F6724
:1002E00087BB80E09AEF0197F1F7C19AC09A0E940C
:1002F000DF0080E09EE40197F1F70E94DF00C0E09C
:10030000D1E0CE010197F1F70E94DF00CE01019705
:10031000F1F7C0980E94DF002197F1F788E20E9470
:10032000270188E00E9427010E943D0186E00E948B
:100330002701812F0E942701DF91CF911F910895FE
:100340000E94B4010C949C020E94950258F00E94F5
:100350008E0240F029F45F3F29F00C948502511180
:100360000C94D0020C948B020E94AD0268F3992386
:10037000B1F3552391F3951B550BBB27AA276217A1
:100380007307840738F09F5F5F4F220F331F441FAE
:10039000AA1FA9F335D00E2E3AF0E0E832D09150E2
:1003A0005040E695001CCAF72BD0FE2F29D0660FCF
:1003B000771F881FBB1F261737074807AB07B0E812
:1003C00009F0BB0B802DBF01FF2793585F4F3AF018
:1003D0009E3F510578F00C9485020C94D0025F3F4B
:1003E000E4F3983ED4F3869577956795B795F7959E
:1003F0009F5FC9F7880F911D9695879597F9089586
:10040000E1E0660F771F881FBB1F62177307840721
:10041000BA0720F0621B730B840BBA0BEE1F88F730
:10042000E09508950E9419026894B1110C94D002CD
:1004300008950E94B50288F09F5798F0B92F992728
:10044000B751B0F0E1F0660F771F881F991F1AF0BF
:10045000BA95C9F714C0B13091F00E94CF02B1E053
:1004600008950C94CF02672F782F8827B85F39F052
:10047000B93FCCF3869577956795B395D9F73EF458
:1004800090958095709561957F4F8F4F9F4F089500
:10049000E89409C097FB3EF490958095709561951E
:1004A0007F4F8F4F9F4F9923A9F0F92F96E9BB27D4
:1004B0009395F695879577956795B795F111F8CF50
:1004C000FAF4BB0F11F460FF1BC06F5F7F4F8F4FBB
:1004D0009F4F16C0882311F096E911C0772321F0B1
:1004E0009EE8872F762F05C0662371F096E8862F49
:1004F00070E060E02AF09A95660F771F881FDAF7A0
:10050000880F9695879597F9089597F99F6780E8E2
:1005100070E060E008959FEF80EC089500240A9455
:100520001616170618060906089500240A941216CE
:100530001306140605060895092E0394000C11F401
:10054000882352F0BB0F40F4BF2B11F460FF04C0AE
:100550006F5F7F4F8F4F9F4F089557FD9058440F07
:10056000551F59F05F3F71F04795880F97FB991F12
:1005700061F09F3F79F087950895121613061406CF
:10058000551FF2CF4695F1DF08C01616170618065C
:10059000991FF1CF86957105610508940895E89437
:1005A000BB2766277727CB0197F908950F931F93F1
:1005B000CF93DF93E0918E00F0918F00238121FF94
:1005C0001BC08C01D0E0C0E0F80181918F016091E7
:1005D0008E0070918F00DB011896ED91FC911997B8
:1005E000882331F00995892B79F3DFEFCFEFECCF3A
:1005F0008AE00995892B19F08FEF9FEF02C08D2FAC
:100600009C2FDF91CF911F910F910895AEE0B0E044
:10061000ECE0F3E00C94C7050D891E8986E08C831D
:100620001A8309838FEF9FE79E838D83AE01475E18
:100630005F4F6F89788DCE0101960E942803EF816C
:10064000F885E00FF11F10822E96E4E00C94E3058C
:10065000ABE0B0E0EEE2F3E00C94B9056C017B0195
:100660008A01FC0117821682838181FFCCC1CE01F1
:1006700001963C01F6019381F70193FD859193FF6B
:1006800081917F01882309F4BAC1853239F493FD41
:10069000859193FF81917F01853229F4B60190E025
:1006A0000E941F05E7CF912C212C312CFFE1F3157F
:1006B000D8F08B3279F038F4803279F08332A1F4BB
:1006C000232D20611DC08D3261F0803369F4232D0C
:1006D000216016C0832D8260382EE32DE4603E2E0B
:1006E0002AC0F32DF8601DC037FC2DC020ED280F67
:1006F0002A3040F08E32B9F436FC81C1232D2064BB
:10070000322E19C036FE06C08AE0989E200D1124B4
:10071000922E11C0EAE02E9E200D1124222EF32DE0
:10072000F0623F2E08C08C3621F4832D8068382E6D
:1007300002C0883641F4F70193FD859193FF8191C2
:100740007F018111B3CF982F9F7D9554933028F46A
:100750000C5F1F4F9FE399830DC0833631F08337C1
:1007600071F0833509F059C021C0F8018081898377
:100770000E5F1F4F88248394912C530113C02801CE
:10078000F2E04F0E511CF801A080B18036FE03C08C
:10079000692D70E002C06FEF7FEFC5010E94140564
:1007A0004C018201F32DFF773F2E16C0280122E075
:1007B000420E511CF801A080B18036FE03C0692DA5
:1007C00070E002C06FEF7FEFC5010E9409054C0188
:1007D000F32DF0683F2E820133FC1BC0822D90E088
:1007E00088169906B0F4B60180E290E00E941F05D9
:1007F0002A94F4CFF50137FC859137FE81915F0192
:10080000B60190E00E941F0521102A9421E0821A6F
:1008100091088114910471F7E8C0843611F089368B
:1008200041F5F80137FE07C06081718182819381B3
:100830000C5F1F4F08C060817181072E000C880B70
:10084000990B0E5F1F4FF32DFF763F2E97FF09C0C8
:1008500090958095709561957F4F8F4F9F4FF06871
:100860003F2E2AE030E0A3010E945B05882E861807
:1008700045C0853731F4232D2F7EB22E2AE030E09B
:1008800025C0932D997FB92E8F36C1F018F4883585
:1008900079F0B5C0803719F0883721F0B0C0E92F62
:1008A000E061BE2EB4FE0DC0FB2DF460BF2E09C06A
:1008B00034FE0AC0292F2660B22E06C028E030E0A0
:1008C00005C020E130E002C020E132E0F801B7FECF
:1008D00007C060817181828193810C5F1F4F06C0C8
:1008E0006081718180E090E00E5F1F4FA3010E9444
:1008F0005B05882E8618FB2DFF773F2E36FE0DC038
:10090000232D2E7FA22E891458F434FE0BC032FC06
:1009100009C0832D8E7EA82E05C0B82CA32C03C041
:10092000B82C01C0B92CA4FE0FC0FE01E80DF11DCA
:100930008081803321F49A2D997EA92E09C0A2FED0
:1009400006C0B394B39404C08A2D867809F0B3949A
:10095000A3FC11C0A0FE06C0B21488F4280C922C8F
:100960009B180EC0B21460F4B60180E290E00E94C1
:100970001F05B394F7CFB21418F42B1802C0982CAB
:10098000212CA4FE10C0B60180E390E00E941F0558
:10099000A2FE17C0A1FC03C088E790E002C088E572
:1009A00090E0B6010CC08A2D867859F0A1FE02C0F5
:1009B0008BE201C080E2A7FC8DE2B60190E00E94CC
:1009C0001F05891438F4B60180E390E00E941F05EA
:1009D0009A94F7CF8A94F301E80DF11D8081B60156
:1009E00090E00E941F058110F5CF222009F442CE2D
:1009F000B60180E290E00E941F052A94F6CFF6012E
:100A00008681978102C08FEF9FEF2B96E2E10C94D5
:100A1000D505FC010590615070400110D8F7809514
:100A200090958E0F9F1F0895FC01615070400190BA
:100A30000110D8F7809590958E0F9F1F08950F9302
:100A40001F93CF93DF93FB01238121FD03C08FEF21
:100A50009FEF2CC022FF16C046815781248135812B
:100A60004217530744F4A081B1819D012F5F3F4F8E
:100A7000318320838C93268137812F5F3F4F3783CB
:100A8000268314C08B01EC01FB010084F185E02D6D
:100A90000995892BE1F6D80116968D919C911797AF
:100AA000019617969C938E931697CE01DF91CF9166
:100AB0001F910F910895FA01AA27283051F1203192
:100AC00081F1E8946F936E7F6E5F7F4F8F4F9F4FE2
:100AD000AF4FB1E03ED0B4E03CD0670F781F891F24
:100AE0009A1FA11D680F791F8A1F911DA11D6A0FF2
:100AF000711D811D911DA11D20D009F468943F91A5
:100B00002AE0269F11243019305D3193DEF6CF01A3
:100B10000895462F4770405D4193B3E00FD0C9F769
:100B2000F6CF462F4F70405D4A3318F0495D31FDD6
:100B30004052419302D0A9F7EACFB4E0A695979529
:100B4000879577956795BA95C9F7009761057105FF
:100B500008959B01AC010A2E069457954795379549
:100B60002795BA95C9F7620F731F841F951FA01DA3
:100B700008952F923F924F925F926F927F928F9241
:100B80009F92AF92BF92CF92DF92EF92FF920F931C
:100B90001F93CF93DF93CDB7DEB7CA1BDB0B0FB626
:100BA000F894DEBF0FBECDBF09942A8839884888E3
:100BB0005F846E847D848C849B84AA84B984C88479
:100BC000DF80EE80FD800C811B81AA81B981CE0F70
:100BD000D11D0FB6F894DEBF0FBECDBFED01089555
:040BE000F894FFCFB7
:100BE40025640074656D70657261747572653A0090
:100BF400434F4C442020202000504C454153414E4B
:0C0C04005400484F542020202020000005
:00000001FF
