:100000000C942A000C943C000C943C000C943C0092
:100010000C943C000C943C000C943C000C943C0070
:100020000C943C000C943C000C943C000C943C0060
:100030000C943C000C943C000C943C000C943C0050
:100040000C943C000C943C000C943C000C943C0040
:100050000C943C0011241FBECFE5D8E0DEBFCDBF1D
:1000600020E0A0E6B0E001C01D92A637B207E1F79C
:100070000E9441010C94DE010C940000C69A00C05D
:10008000C6980895CF93DF93D82F662311F0C49AB2
:1000900001C0C498C59887B38F6087BBC8B3C07FC1
:1000A0008D2F82958F708C2B88BB0E943E00DF7055
:1000B000DC2BD8BB0E943E00CF60C8BBDF91CF9144
:1000C0000895882311F0C49A01C0C498C59A87B3D3
:1000D000807F87BBC69A00C096B3C69800C0C69AF8
:1000E00000C026B32F70892F8295807FC698822BFF
:1000F000089580E00E9461008823DCF388E090E0AE
:100100000197F1F780E00E9461000895CF93C82F16
:100110000E94790060E08C2F0E944200CF910895E8
:1001200081E00E948600089582E00E948600089582
:10013000CF93C82F0E947900CA3049F4803410F060
:1001400080E001C080E480580E94860004C061E025
:100150008C2F0E944200CF910895CF93DF93EC0142
:100160002196FC018081882329F00E9498008991C2
:100170008111FBCFDF91CF9108951F93CF93DF9330
:10018000182F87B38F6787BB80E09AEF0197F1F74D
:10019000C19AC09A0E943E0080E09EE40197F1F768
:1001A0000E943E00C0E0D1E0CE010197F1F70E942D
:1001B0003E00CE010197F1F7C0980E943E002197C2
:1001C000F1F788E20E94860088E00E9486000E9483
:1001D000900086E00E948600812F0E948600DF91B9
:1001E000CF911F910895CF93DF93EC01813091055A
:1001F00021F481E30E9498000DC08230910521F422
:1002000082E30E9498000DC0039721F483E30E94CB
:1002100098000EC0C430D10521F484E30E949800F8
:100220000EC0C530D10521F485E30E9498000EC0B0
:10023000C630D10521F486E30E9498000EC0C73075
:10024000D10521F487E30E9498000EC0C830D10583
:1002500021F488E30E9498000DC0C930D10521F433
:1002600089E30E9498000AC0209721F480E30E944D
:10027000980004C02A9711F40E949000DF91CF915A
:10028000089510BC83E389B91BB880E18AB986E878
:1002900080BD88E784BB87E085BB17BA18BA8EE0BB
:1002A0000E94BD000E949000C7E780E690E00E9497
:1002B00076010E9490000E94940080E690E00E94E7
:1002C000AD002FE78AE196E0215080409040E1F7B1
:1002D00000C00000C5BB83E090E00E94F30083E211
:1002E00094EF0197F1F700C00000DFCF0F931F9349
:1002F000CF93DF93E0917000F0917100238120FD96
:1003000003C080E090E017C0C92FD82F082F192F05
:1003100080917000909171000E94A0018F3F2FEF9B
:10032000920779F3F80181938F010A9789F7319742
:1003300010828D2F9C2FDF91CF911F910F910895E7
:10034000CF93DF93EC012B8120FF33C026FF0AC03F
:100350002F7B2B838E819F8101969F838E838A8141
:1003600090E029C022FF0FC0E881F9818081082E2A
:10037000000C990B009719F420622B831AC0319658
:10038000F983E8830EC0EA85FB85099597FF09C0CC
:100390002B81019611F080E201C080E1822B8B83DA
:1003A00008C02E813F812F5F3F4F3F832E839927C7
:1003B00002C08FEF9FEFDF91CF910895F894FFCFA8
:00000001FF
