:100000000C942A000C9447000C9447000C94470071
:100010000C9447000C9447000C9447000C94470044
:100020000C9447000C9447000C9447000C94470034
:100030000C9447000C9447000C9447000C94470024
:100040000C9447000C9447000C9447000C94470014
:100050000C94470011241FBECFE5D8E0DEBFCDBF12
:1000600010E0A0E6B0E0ECE2F2E002C005900D92F4
:10007000A036B107D9F720E0A0E6B0E001C01D929C
:10008000A036B207E1F70E94F9000C9414010C9419
:100090000000C69A00C0C6980895CF93DF93D82F6A
:1000A000662311F0C49A01C0C498C59887B38F60C5
:1000B00087BBC8B3C07F8D2F82958F708C2B88BB78
:1000C0000E944900DF70DC2BD8BB0E944900CF6042
:1000D000C8BBDF91CF910895882311F0C49A01C065
:1000E000C498C59A87B3807F87BBC69A00C096B371
:1000F000C69800C0C69A00C026B32F70892F82957B
:10010000807FC698822B089580E00E946C0088232F
:10011000DCF388E090E00197F1F780E00E946C004A
:100120000895CF93C82F0E94840060E08C2F0E9416
:100130004D00CF91089581E00E949100089582E0E2
:100140000E9491000895CF93C82F0E948400CA3066
:1001500049F4803410F080E001C080E480580E94AF
:10016000910004C061E08C2F0E944D00CF91089552
:100170001F93CF93DF93182F87B38F6787BB80E0E0
:100180009AEF0197F1F7C19AC09A0E94490080E066
:100190009EE40197F1F70E944900C0E0D1E0CE0152
:1001A0000197F1F70E944900CE010197F1F7C0983D
:1001B0000E9449002197F1F788E20E94910088E0AF
:1001C0000E9491000E949B0086E00E949100812F76
:1001D0000E949100DF91CF911F91089587E78BBB1B
:1001E0008FE68BBB8FE58BBB8FE38BBB8CE090E006
:1001F000089588E78ABB87E08BBB8EE00E94B80039
:100200000E949F000E94EE008C309105D9F3805D22
:100210000E94A3002FE681E191E0215080409040B0
:0C022000E1F700C00000EECFF894FFCF23
:00000001FF
