:100000000C942A000C9447000C9447000C94470071
:100010000C9447000C9447000C9447000C94470044
:100020000C9447000C9447000C9447000C94470034
:100030000C9447000C9447000C9447000C94470024
:100040000C9447000C9447000C9447000C94470014
:100050000C94470011241FBECFE5D8E0DEBFCDBF12
:1000600010E0A0E6B0E0EAE9FCE002C005900D92E5
:10007000AA3FB107D9F720E0AAEFB0E001C01D9276
:10008000AC3FB207E1F70E9439010C944B060C9487
:100090000000C69A00C0C6980895CF93DF93D82F6A
:1000A000662311F0C49A01C0C498C59887B38F60C5
:1000B00087BBC8B3C07F8D2F82958F708C2B88BB78
:1000C0000E944900DF70DC2BD8BB0E944900CF6042
:1000D000C8BBDF91CF910895882311F0C49A01C065
:1000E000C498C59A87B3807F87BBC69A00C096B371
:1000F000C69800C0C69A00C026B32F70892F82957B
:10010000807FC698822B089580E00E946C0088232F
:10011000DCF388E090E00197F1F780E00E946C004A
:100120000895CF93C82F0E94840060E08C2F0E9416
:100130004D00CF910895811105C080E8860F0E947F
:100140009100089580EC860F0E949100089581E04F
:100150000E949100089582E00E9491000895CF933B
:10016000C82F0E948400CA3049F4803410F080E027
:1001700001C080E480580E94910004C061E08C2F8F
:100180000E944D00CF910895CF93DF93EC0121960B
:10019000FC018081882329F00E94AF0089918111A0
:1001A000FBCFDF91CF9108951F93CF93DF93182F4B
:1001B00087B38F6787BB80E09AEF0197F1F7C19A09
:1001C000C09A0E94490080E09EE40197F1F70E94E6
:1001D0004900C0E0D1E0CE010197F1F70E9449004B
:1001E000CE010197F1F7C0980E9449002197F1F7DD
:1001F00088E20E94910088E00E9491000E94A7007E
:1002000086E00E949100812F0E949100DF91CF91A2
:100210001F91089587B9369A349BFECF349A84B1E2
:1002200095B1089510BC83E389B988E18AB986E85D
:1002300080BD08958CB95D9BFECF08955F9BFECF76
:100240008CB10895CF93DF93EC018881882331F03E
:1002500021960E941A0189918111FBCFDF91CF91E4
:10026000089521E030E00A9710F020E030E0C90165
:100270000895CF93DF93CDB7DEB72A970FB6F894E2
:10028000DEBF0FBECDBF8FEF84BB1ABA1BBA0E9470
:10029000120184E690E00E9422018DE00E941A0182
:1002A0008FE790E00E9422018DE00E941A018CE904
:1002B00090E00E9422018DE00E941A0117B882E8A6
:1002C00086B910BE8EE00E94D4000E94AB000F2EB3
:1002D000FFECEF2EF0E0FF2EF02D8E010F5F1F4F91
:1002E0000E941E01B82E8093FA008093FB00682FB5
:1002F00070E06B0120E3C21AD108C6010E943101EF
:100300008130910579F50E94A70085EB90E00E946D
:10031000C400B601660F771F660F771F1616170603
:10032000FCF640E050E09A0123703078332334F437
:10033000215031092C6F3F6F2F5F3F4FF901E05A79
:10034000FF4F908195BB8FE79AE126E08150904066
:100350002040E1F700C000004F5F5F4F461757078E
:1003600011F7BECF892BA9F484E7B81691F00E944B
:10037000A70081EC90E00E94C4009FEF29E688E18D
:10038000915020408040E1F700C000000E94A7008B
:10039000A7CF80E00E940A01BC01990F880B990B3E
:1003A0000E94D5022CEB34E743E050E40E942B027C
:1003B0000E949D024B015C016B019F926F93FF9223
:1003C000EF921F930F930E9461030E94A7000E9467
:1003D000AB0082ED90E00E94C4006DE080E00E94DE
:1003E0009B00C8010E94C4000F900F900F900F90C7
:1003F0000F900F9098E18916910444F460E081E039
:100400000E949B008FED90E00E94C40028E1821AB8
:10041000910880E18816910440F460E081E00E9438
:100420009B0088EE90E00E94C40098E2C916D104B7
:1004300044F060E081E00E949B0081EF90E00E9428
:10044000C4002FEF89E698E1215080409040E1F709
:1004500000C0000045CF0E943F020C9427030E9479
:10046000200358F00E94190340F029F45F3F29F05F
:100470000C94100351110C945B030C9416030E940E
:10048000380368F39923B1F3552391F3951B550B6A
:10049000BB27AA2762177307840738F09F5F5F4F57
:1004A000220F331F441FAA1FA9F335D00E2E3AF096
:1004B000E0E832D091505040E695001CCAF72BD0AE
:1004C000FE2F29D0660F771F881FBB1F26173707FF
:1004D0004807AB07B0E809F0BB0B802DBF01FF2731
:1004E00093585F4F3AF09E3F510578F00C941003FB
:1004F0000C945B035F3FE4F3983ED4F386957795C5
:100500006795B795F7959F5FC9F7880F911D9695E9
:10051000879597F90895E1E0660F771F881FBB1F45
:10052000621773078407BA0720F0621B730B840BF2
:10053000BA0BEE1F88F7E09508950E94A402689414
:10054000B1110C945B0308950E94400388F09F57FB
:1005500098F0B92F9927B751B0F0E1F0660F771FE7
:10056000881F991F1AF0BA95C9F714C0B13091F0DD
:100570000E945A03B1E008950C945A03672F782F14
:100580008827B85F39F0B93FCCF3869577956795A2
:10059000B395D9F73EF490958095709561957F4F0E
:1005A0008F4F9F4F0895E89409C097FB3EF49095B4
:1005B0008095709561957F4F8F4F9F4F9923A9F03C
:1005C000F92F96E9BB279395F695879577956795CB
:1005D000B795F111F8CFFAF4BB0F11F460FF1BC00F
:1005E0006F5F7F4F8F4F9F4F16C0882311F096E9A2
:1005F00011C0772321F09EE8872F762F05C0662350
:1006000071F096E8862F70E060E02AF09A95660F08
:10061000771F881FDAF7880F9695879597F90895C1
:1006200097F99F6780E870E060E008959FEF80ECA5
:10063000089500240A941616170618060906089548
:1006400000240A9412161306140605060895092EAE
:100650000394000C11F4882352F0BB0F40F4BF2B1D
:1006600011F460FF04C06F5F7F4F8F4F9F4F08955D
:1006700057FD9058440F551F59F05F3F71F0479553
:10068000880F97FB991F61F09F3F79F08795089538
:10069000121613061406551FF2CF4695F1DF08C057
:1006A000161617061806991FF1CF86957105610574
:1006B00008940895E894BB2766277727CB0197F91C
:1006C0000895AEE0B0E0E7E6F3E00C9422060D8971
:1006D0001E8986E08C831A8309838FEF9FE79E83B0
:1006E0008D83AE01475E5F4F6F89788DCE01019695
:1006F0000E948303EF81F885E00FF11F10822E9690
:10070000E4E00C943E06ABE0B0E0E9E8F3E00C94E2
:1007100014066C017B018A01FC0117821682838119
:1007200081FFCCC1CE0101963C01F6019381F70116
:1007300093FD859193FF81917F01882309F4BAC1CC
:10074000853239F493FD859193FF81917F01853244
:1007500029F4B60190E00E947A05E7CF912C212C74
:10076000312CFFE1F315D8F08B3279F038F4803278
:1007700079F08332A1F4232D20611DC08D3261F008
:10078000803369F4232D216016C0832D8260382EBA
:10079000E32DE4603E2E2AC0F32DF8601DC037FC27
:1007A0002DC020ED280F2A3040F08E32B9F436FCEF
:1007B00081C1232D2064322E19C036FE06C08AE086
:1007C000989E200D1124922E11C0EAE02E9E200D3D
:1007D0001124222EF32DF0623F2E08C08C3621F416
:1007E000832D8068382E02C0883641F4F70193FDCE
:1007F000859193FF81917F018111B3CF982F9F7DC8
:100800009554933028F40C5F1F4F9FE399830DC0DC
:10081000833631F0833771F0833509F059C021C038
:10082000F801808189830E5F1F4F88248394912C67
:10083000530113C02801F2E04F0E511CF801A080B3
:10084000B18036FE03C0692D70E002C06FEF7FEF0C
:10085000C5010E946F054C018201F32DFF773F2EE9
:1008600016C0280122E0420E511CF801A080B18080
:1008700036FE03C0692D70E002C06FEF7FEFC50147
:100880000E9464054C01F32DF0683F2E820133FC79
:100890001BC0822D90E088169906B0F4B60180E264
:1008A00090E00E947A052A94F4CFF50137FC8591F7
:1008B00037FE81915F01B60190E00E947A05211018
:1008C0002A9421E0821A91088114910471F7E8C0FA
:1008D000843611F0893641F5F80137FE07C0608192
:1008E0007181828193810C5F1F4F08C0608171818B
:1008F000072E000C880B990B0E5F1F4FF32DFF7610
:100900003F2E97FF09C090958095709561957F4F18
:100910008F4F9F4FF0683F2E2AE030E0A3010E94E6
:10092000B605882E861845C0853731F4232D2F7ED5
:10093000B22E2AE030E025C0932D997FB92E8F3654
:10094000C1F018F4883579F0B5C0803719F08837D0
:1009500021F0B0C0E92FE061BE2EB4FE0DC0FB2D2A
:10096000F460BF2E09C034FE0AC0292F2660B22EC3
:1009700006C028E030E005C020E130E002C020E100
:1009800032E0F801B7FE07C06081718182819381F6
:100990000C5F1F4F06C06081718180E090E00E5FA8
:1009A0001F4FA3010E94B605882E8618FB2DFF77E6
:1009B0003F2E36FE0DC0232D2E7FA22E891458F413
:1009C00034FE0BC032FC09C0832D8E7EA82E05C0DC
:1009D000B82CA32C03C0B82C01C0B92CA4FE0FC0A6
:1009E000FE01E80DF11D8081803321F49A2D997E5E
:1009F000A92E09C0A2FE06C0B394B39404C08A2DE8
:100A0000867809F0B394A3FC11C0A0FE06C0B2140E
:100A100088F4280C922C9B180EC0B21460F4B60116
:100A200080E290E00E947A05B394F7CFB21418F4F4
:100A30002B1802C0982C212CA4FE10C0B60180E314
:100A400090E00E947A05A2FE17C0A1FC03C088E7CF
:100A500090E002C088E590E0B6010CC08A2D86784F
:100A600059F0A1FE02C08BE201C080E2A7FC8DE23A
:100A7000B60190E00E947A05891438F4B60180E34B
:100A800090E00E947A059A94F7CF8A94F301E80DDA
:100A9000F11D8081B60190E00E947A058110F5CFAA
:100AA000222009F442CEB60180E290E00E947A054D
:100AB0002A94F6CFF6018681978102C08FEF9FEFCF
:100AC0002B96E2E10C943006FC01059061507040D9
:100AD0000110D8F7809590958E0F9F1F0895FC0107
:100AE0006150704001900110D8F7809590958E0F5D
:100AF0009F1F08950F931F93CF93DF93FB012381D3
:100B000021FD03C08FEF9FEF2CC022FF16C046814E
:100B10005781248135814217530744F4A081B18164
:100B20009D012F5F3F4F318320838C932681378136
:100B30002F5F3F4F3783268314C08B01EC01FB01ED
:100B40000084F185E02D0995892BE1F6D8011696F0
:100B50008D919C911797019617969C938E9316975B
:100B6000CE01DF91CF911F910F910895FA01AA272D
:100B7000283051F1203181F1E8946F936E7F6E5FE0
:100B80007F4F8F4F9F4FAF4FB1E03ED0B4E03CD08E
:100B9000670F781F891F9A1FA11D680F791F8A1F71
:100BA000911DA11D6A0F711D811D911DA11D20D0D8
:100BB00009F468943F912AE0269F11243019305D92
:100BC0003193DEF6CF010895462F4770405D419383
:100BD000B3E00FD0C9F7F6CF462F4F70405D4A33D0
:100BE00018F0495D31FD4052419302D0A9F7EACF98
:100BF000B4E0A6959795879577956795BA95C9F7C7
:100C000000976105710508959B01AC010A2E0694B9
:100C10005795479537952795BA95C9F7620F731F72
:100C2000841F951FA01D08952F923F924F925F92AF
:100C30006F927F928F929F92AF92BF92CF92DF92EC
:100C4000EF92FF920F931F93CF93DF93CDB7DEB751
:100C5000CA1BDB0B0FB6F894DEBF0FBECDBF0994E5
:100C60002A88398848885F846E847D848C849B843C
:100C7000AA84B984C884DF80EE80FD800C811B814A
:100C8000AA81B981CE0FD11D0FB6F894DEBF0FBE79
:0A0C9000CDBFED010895F894FFCFE9
:100C9A0001020408686920667269656E642E207410
:100CAA0068697320697320616D6972616C69007388
:100CBA007461727420746865206D6F746F72203D60
:100CCA003E283F2920726F756E64730063686563FE
:100CDA006B207468652074656D70657261747572D5
:100CEA00653D3E74007374617274696E672E2E2EB0
:100CFA0000696E76616C696420696E70757400258E
:100D0A00640074656D70657261747572653A00434A
:100D1A004F4C442020202000504C454153414E5412
:0A0D2A0000484F5420202020200034
:00000001FF
