:100000000C942A000C943F000C943F000C943F0089
:100010000C943F000C943F000C943F000C943F0064
:100020000C943F000C943F000C943F000C943F0054
:100030000C943F000C943F000C943F000C943F0044
:100040000C943F000C943F000C943F000C943F0034
:100050000C943F0011241FBECFE5D8E0DEBFCDBF1A
:1000600010E0A0E6B0E0E6E8FBE002C005900D92EB
:10007000A039B107D9F70E940A010C94C1050C946C
:100080000000C69A00C0C6980895CF93DF93D82F7A
:10009000662311F0C49A01C0C498C59887B38F60D5
:1000A00087BBC8B3C07F8D2F82958F708C2B88BB88
:1000B0000E944100DF70DC2BD8BB0E944100CF6062
:1000C000C8BBDF91CF910895882311F0C49A01C075
:1000D000C498C59A87B3807F87BBC69A00C096B381
:1000E000C69800C0C69A00C026B32F70892F82958B
:1000F000807FC698822B089580E00E946400882348
:10010000DCF388E090E00197F1F780E00E94640062
:100110000895CF93C82F0E947C0060E08C2F0E942E
:100120004500CF910895811105C080E8860F0E9497
:100130008900089580EC860F0E948900089581E06F
:100140000E948900089582E00E9489000895CF935B
:10015000C82F0E947C00CA3049F4803410F080E03F
:1001600001C080E480580E94890004C061E08C2FA7
:100170000E944500CF910895CF93DF93EC01219623
:10018000FC018081882329F00E94A70089918111B8
:10019000FBCFDF91CF9108951F93CF93DF93182F5B
:1001A00087B38F6787BB80E09AEF0197F1F7C19A19
:1001B000C09A0E94410080E09EE40197F1F70E94FE
:1001C0004100C0E0D1E0CE010197F1F70E9441006B
:1001D000CE010197F1F7C0980E9441002197F1F7F5
:1001E00088E20E94890088E00E9489000E949F00A6
:1001F00086E00E948900812F0E948900DF91CF91C3
:100200001F91089587B9369A349BFECF349A84B1F2
:1002100095B10895CF93DF93CDB7DEB72A970FB688
:10022000F894DEBF0FBECDBF8FEF84BB1ABA1BBAE6
:1002300017BA18BA17B882E886B910BE8EE00E94C5
:10024000CC000E949F000F2EF4E6AF2EF0E0BF2EF0
:10025000F02DCE0101966C010F2EF4E6EF2EF0E0AA
:10026000FF2EF02D80E00E940201BC01990F880B47
:10027000990B0E944B022CEB34E743E050E40E94C0
:10028000A1010E9413022B013C018B01CB010196BD
:100290009F938F93BF92AF92DF92CF920E94D7022B
:1002A0000E949F000E94A30087E690E00E94BC008D
:1002B0006DE080E00E949300C6010E94BC000F9098
:1002C0000F900F900F900F900F900831110544F48C
:1002D00060E081E00E94930084E790E00E94BC000F
:1002E00098E1491A510820E14216510440F460E0B7
:1002F00081E00E9493008DE790E00E94BC000832EC
:100300001105C4F060E081E00E94930086E890E06F
:100310000E94BC00E0E6F0E0819185BB8FE996E8A1
:1003200021E0815090402040E1F700C00000EE1530
:10033000FF0591F783E294EF0197F1F700C0000009
:1003400091CF0E94B5010C949D020E94960258F034
:100350000E948F0240F029F45F3F29F00C9486023E
:1003600051110C94D1020C948C020E94AE0268F3DD
:100370009923B1F3552391F3951B550BBB27AA275E
:1003800062177307840738F09F5F5F4F220F331F98
:10039000441FAA1FA9F335D00E2E3AF0E0E832D060
:1003A00091505040E695001CCAF72BD0FE2F29D063
:1003B000660F771F881FBB1F261737074807AB0735
:1003C000B0E809F0BB0B802DBF01FF2793585F4FAA
:1003D0003AF09E3F510578F00C9486020C94D102BD
:1003E0005F3FE4F3983ED4F3869577956795B7958C
:1003F000F7959F5FC9F7880F911D9695879597F997
:100400000895E1E0660F771F881FBB1F621773070F
:100410008407BA0720F0621B730B840BBA0BEE1F24
:1004200088F7E09508950E941A026894B1110C941F
:10043000D10208950E94B60288F09F5798F0B92F14
:100440009927B751B0F0E1F0660F771F881F991F09
:100450001AF0BA95C9F714C0B13091F00E94D002D9
:10046000B1E008950C94D002672F782F8827B85FE9
:1004700039F0B93FCCF3869577956795B395D9F761
:100480003EF490958095709561957F4F8F4F9F4F6B
:100490000895E89409C097FB3EF490958095709577
:1004A00061957F4F8F4F9F4F9923A9F0F92F96E9C0
:1004B000BB279395F695879577956795B795F11135
:1004C000F8CFFAF4BB0F11F460FF1BC06F5F7F4FD2
:1004D0008F4F9F4F16C0882311F096E911C07723E4
:1004E00021F09EE8872F762F05C0662371F096E8ED
:1004F000862F70E060E02AF09A95660F771F881FBC
:10050000DAF7880F9695879597F9089597F99F6779
:1005100080E870E060E008959FEF80EC089500248B
:100520000A941616170618060906089500240A9458
:1005300012161306140605060895092E0394000CDE
:1005400011F4882352F0BB0F40F4BF2B11F460FF6D
:1005500004C06F5F7F4F8F4F9F4F089557FD905896
:10056000440F551F59F05F3F71F04795880F97FB77
:10057000991F61F09F3F79F0879508951216130631
:100580001406551FF2CF4695F1DF08C01616170660
:100590001806991FF1CF8695710561050894089595
:1005A000E894BB2766277727CB0197F90895AEE03B
:1005B000B0E0EDEDF2E00C9498050D891E8986E01F
:1005C0008C831A8309838FEF9FE79E838D83AE010F
:1005D000475E5F4F6F89788DCE0101960E94F902C8
:1005E000EF81F885E00FF11F10822E96E4E00C9465
:1005F000B405ABE0B0E0EFEFF2E00C948A056C01DB
:100600007B018A01FC0117821682838181FFCCC1A4
:10061000CE0101963C01F6019381F70193FD85918E
:1006200093FF81917F01882309F4BAC1853239F49F
:1006300093FD859193FF81917F01853229F4B60165
:1006400090E00E94F004E7CF912C212C312CFFE1A7
:10065000F315D8F08B3279F038F4803279F08332A8
:10066000A1F4232D20611DC08D3261F0803369F427
:10067000232D216016C0832D8260382EE32DE46087
:100680003E2E2AC0F32DF8601DC037FC2DC020ED92
:10069000280F2A3040F08E32B9F436FC81C1232D68
:1006A0002064322E19C036FE06C08AE0989E200DC6
:1006B0001124922E11C0EAE02E9E200D1124222E2C
:1006C000F32DF0623F2E08C08C3621F4832D806814
:1006D000382E02C0883641F4F70193FD859193FFCF
:1006E00081917F018111B3CF982F9F7D95549330D5
:1006F00028F40C5F1F4F9FE399830DC0833631F0C0
:10070000833771F0833509F059C021C0F801808129
:1007100089830E5F1F4F88248394912C530113C04B
:100720002801F2E04F0E511CF801A080B18036FE86
:1007300003C0692D70E002C06FEF7FEFC5010E941A
:10074000E5044C018201F32DFF773F2E16C02801EE
:1007500022E0420E511CF801A080B18036FE03C099
:10076000692D70E002C06FEF7FEFC5010E94DA04CF
:100770004C01F32DF0683F2E820133FC1BC0822D0B
:1007800090E088169906B0F4B60180E290E00E94ED
:10079000F0042A94F4CFF50137FC859137FE81915E
:1007A0005F01B60190E00E94F00421102A9421E03C
:1007B000821A91088114910471F7E8C0843611F00F
:1007C000893641F5F80137FE07C060817181828169
:1007D00093810C5F1F4F08C060817181072E000C50
:1007E000880B990B0E5F1F4FF32DFF763F2E97FF5F
:1007F00009C090958095709561957F4F8F4F9F4F61
:10080000F0683F2E2AE030E0A3010E942C05882EDC
:10081000861845C0853731F4232D2F7EB22E2AE06D
:1008200030E025C0932D997FB92E8F36C1F018F492
:10083000883579F0B5C0803719F0883721F0B0C01D
:10084000E92FE061BE2EB4FE0DC0FB2DF460BF2E7B
:1008500009C034FE0AC0292F2660B22E06C028E047
:1008600030E005C020E130E002C020E132E0F801D4
:10087000B7FE07C060817181828193810C5F1F4F39
:1008800006C06081718180E090E00E5F1F4FA30180
:100890000E942C05882E8618FB2DFF773F2E36FEF2
:1008A0000DC0232D2E7FA22E891458F434FE0BC0C8
:1008B00032FC09C0832D8E7EA82E05C0B82CA32C37
:1008C00003C0B82C01C0B92CA4FE0FC0FE01E80D76
:1008D000F11D8081803321F49A2D997EA92E09C0C3
:1008E000A2FE06C0B394B39404C08A2D867809F0A2
:1008F000B394A3FC11C0A0FE06C0B21488F4280C67
:10090000922C9B180EC0B21460F4B60180E290E005
:100910000E94F004B394F7CFB21418F42B1802C05D
:10092000982C212CA4FE10C0B60180E390E00E9418
:10093000F004A2FE17C0A1FC03C088E790E002C04B
:1009400088E590E0B6010CC08A2D867859F0A1FEAA
:1009500002C08BE201C080E2A7FC8DE2B60190E00C
:100960000E94F004891438F4B60180E390E00E94FC
:10097000F0049A94F7CF8A94F301E80DF11D808179
:10098000B60190E00E94F0048110F5CF222009F416
:1009900042CEB60180E290E00E94F0042A94F6CFA5
:1009A000F6018681978102C08FEF9FEF2B96E2E1DF
:1009B0000C94A605FC010590615070400110D8F719
:1009C000809590958E0F9F1F0895FC016150704097
:1009D00001900110D8F7809590958E0F9F1F089574
:1009E0000F931F93CF93DF93FB01238121FD03C05E
:1009F0008FEF9FEF2CC022FF16C0468157812481C4
:100A000035814217530744F4A081B1819D012F5FC6
:100A10003F4F318320838C93268137812F5F3F4F57
:100A20003783268314C08B01EC01FB010084F18520
:100A3000E02D0995892BE1F6D80116968D919C91B0
:100A40001797019617969C938E931697CE01DF9178
:100A5000CF911F910F910895FA01AA27283051F1E3
:100A6000203181F1E8946F936E7F6E5F7F4F8F4FDF
:100A70009F4FAF4FB1E03ED0B4E03CD0670F781F3E
:100A8000891F9A1FA11D680F791F8A1F911DA11D23
:100A90006A0F711D811D911DA11D20D009F468945C
:100AA0003F912AE0269F11243019305D3193DEF604
:100AB000CF010895462F4770405D4193B3E00FD0BA
:100AC000C9F7F6CF462F4F70405D4A3318F0495DA5
:100AD00031FD4052419302D0A9F7EACFB4E0A69588
:100AE0009795879577956795BA95C9F700976105AA
:100AF000710508959B01AC010A2E06945795479500
:100B000037952795BA95C9F7620F731F841F951FF4
:100B1000A01D08952F923F924F925F926F927F9205
:100B20008F929F92AF92BF92CF92DF92EF92FF92FD
:100B30000F931F93CF93DF93CDB7DEB7CA1BDB0BA9
:100B40000FB6F894DEBF0FBECDBF09942A8839884E
:100B500048885F846E847D848C849B84AA84B98455
:100B6000C884DF80EE80FD800C811B81AA81B98161
:100B7000CE0FD11D0FB6F894DEBF0FBECDBFED0175
:060B80000895F894FFCF78
:100B86000102040825640074656D706572617475F0
:100B960072653A00434F4C442020202000504C45BB
:100BA6004153414E5400484F54202020202000003D
:00000001FF
