:100000000C942A000C9447000C9447000C94470071
:100010000C9447000C9415010C9447000C94470075
:100020000C9447000C9447000C9447000C94470034
:100030000C9447000C9447000C9447000C94470024
:100040000C9447000C9447000C9447000C94470014
:100050000C94470011241FBECFE5D8E0DEBFCDBF12
:1000600010E0A0E6B0E0E4E6F9E002C005900D92F1
:10007000AA37B107D9F720E0AAE7B0E001C01D9286
:10008000AB37B207E1F70E9426010C94B0040C9440
:100090000000C69A00C0C6980895CF93DF93D82F6A
:1000A000662311F0C49A01C0C498C59887B38F60C5
:1000B00087BBC8B3C07F8D2F82958F708C2B88BB78
:1000C0000E944900DF70DC2BD8BB0E944900CF6042
:1000D000C8BBDF91CF910895882311F0C49A01C065
:1000E000C498C59A87B3807F87BBC69A00C096B371
:1000F000C69800C0C69A00C026B32F70892F82957B
:10010000807FC698822B089580E00E946C0088232F
:10011000DCF388E090E00197F1F780E00E946C004A
:100120000895CF93C82F0E94840060E08C2F0E9416
:100130004D00CF910895811105C080E8860F0E947F
:100140009100089580EC860F0E949100089581E04F
:100150000E949100089582E00E9491000895CF933B
:10016000C82F0E948400CA3049F4803410F080E027
:1001700001C080E480580E94910004C061E08C2F8F
:100180000E944D00CF910895CF93DF93EC0121960B
:10019000FC018081882329F00E94AF0089918111A0
:1001A000FBCFDF91CF9108951F93CF93DF93182F4B
:1001B00087B38F6787BB80E09AEF0197F1F7C19A09
:1001C000C09A0E94490080E09EE40197F1F70E94E6
:1001D0004900C0E0D1E0CE010197F1F70E9449004B
:1001E000CE010197F1F7C0980E9449002197F1F7DD
:1001F00088E20E94910088E00E9491000E94A7007E
:1002000086E00E949100812F0E949100DF91CF91A2
:100210001F91089585B5866085BD14BC89B780643B
:1002200089BF789410927A0008951F920F920FB6AA
:100230000F9211248F9380917A008F5F80937A00C0
:100240008F910F900FBE0F901F901895CF93DF9353
:10025000CDB7DEB72A970FB6F894DEBF0FBECDBF7D
:100260008EE00E94D4000E94AB0080E690E00E94E5
:10027000C40068E080E00E949B0085E690E00E9458
:10028000C4006BE080E00E949B0085E690E00E9445
:10029000C400A09A0E940A0100E010E00F2EF7E6C9
:1002A000CF2EF0E0DF2EF02DCE0101967C01809163
:1002B0007A008C30E0F384B58533C8F30F5F1F4FAD
:1002C0006CE080E00E949B001F930F93DF92CF921F
:1002D000FF92EF920E94C601C7010E94C4000F90D6
:1002E0000F900F900F900F900F900C331105D1F4D9
:1002F0009FEFA91AB90A69E080E00E949B00BF92B3
:10030000AF92DF92CF92FF92EF920E94C601C70197
:100310000E94C4000F900F900F900F900F900F90BD
:1003200000E010E08CE3A816B104D1F49FEF891A25
:10033000990A66E080E00E949B009F928F92DF9274
:10034000CF92FF92EF920E94C601C7010E94C400A3
:100350000F900F900F900F900F900F90A12CB12C39
:1003600088E18816910471F40E94AB008AE690E05F
:100370000E94C4000E94A700812C912C00E010E094
:10038000A12CB12C14BC10927A0091CFAEE0B0E059
:10039000ECECF1E00C9487040D891E8986E08C83D7
:1003A0001A8309838FEF9FE79E838D83AE01475E9B
:1003B0005F4F6F89788DCE0101960E94E801EF8131
:1003C000F885E00FF11F10822E96E4E00C94A30450
:1003D000ABE0B0E0EEEEF1E00C9479046C017B014F
:1003E0008A01FC0117821682838181FFCCC1CE0174
:1003F00001963C01F6019381F70193FD859193FFEE
:1004000081917F01882309F4BAC1853239F493FDC3
:10041000859193FF81917F01853229F4B60190E0A7
:100420000E94DF03E7CF912C212C312CFFE1F31543
:10043000D8F08B3279F038F4803279F08332A1F43D
:10044000232D20611DC08D3261F0803369F4232D8E
:10045000216016C0832D8260382EE32DE4603E2E8D
:100460002AC0F32DF8601DC037FC2DC020ED280FE9
:100470002A3040F08E32B9F436FC81C1232D20643D
:10048000322E19C036FE06C08AE0989E200D112437
:10049000922E11C0EAE02E9E200D1124222EF32D63
:1004A000F0623F2E08C08C3621F4832D8068382EF0
:1004B00002C0883641F4F70193FD859193FF819145
:1004C0007F018111B3CF982F9F7D9554933028F4ED
:1004D0000C5F1F4F9FE399830DC0833631F0833744
:1004E00071F0833509F059C021C0F80180818983FA
:1004F0000E5F1F4F88248394912C530113C0280151
:10050000F2E04F0E511CF801A080B18036FE03C00E
:10051000692D70E002C06FEF7FEFC5010E94D40328
:100520004C018201F32DFF773F2E16C0280122E0F7
:10053000420E511CF801A080B18036FE03C0692D27
:1005400070E002C06FEF7FEFC5010E94C9034C014C
:10055000F32DF0683F2E820133FC1BC0822D90E00A
:1005600088169906B0F4B60180E290E00E94DF039D
:100570002A94F4CFF50137FC859137FE81915F0114
:10058000B60190E00E94DF0321102A9421E0821A34
:1005900091088114910471F7E8C0843611F089360E
:1005A00041F5F80137FE07C0608171818281938136
:1005B0000C5F1F4F08C060817181072E000C880BF3
:1005C000990B0E5F1F4FF32DFF763F2E97FF09C04B
:1005D00090958095709561957F4F8F4F9F4FF068F4
:1005E0003F2E2AE030E0A3010E941B04882E8618CB
:1005F00045C0853731F4232D2F7EB22E2AE030E01E
:1006000025C0932D997FB92E8F36C1F018F4883507
:1006100079F0B5C0803719F0883721F0B0C0E92FE4
:10062000E061BE2EB4FE0DC0FB2DF460BF2E09C0EC
:1006300034FE0AC0292F2660B22E06C028E030E022
:1006400005C020E130E002C020E132E0F801B7FE51
:1006500007C060817181828193810C5F1F4F06C04A
:100660006081718180E090E00E5F1F4FA3010E94C6
:100670001B04882E8618FB2DFF773F2E36FE0DC0FB
:10068000232D2E7FA22E891458F434FE0BC032FC89
:1006900009C0832D8E7EA82E05C0B82CA32C03C0C4
:1006A000B82C01C0B92CA4FE0FC0FE01E80DF11D4D
:1006B0008081803321F49A2D997EA92E09C0A2FE53
:1006C00006C0B394B39404C08A2D867809F0B3941D
:1006D000A3FC11C0A0FE06C0B21488F4280C922C12
:1006E0009B180EC0B21460F4B60180E290E00E9444
:1006F000DF03B394F7CFB21418F42B1802C0982C70
:10070000212CA4FE10C0B60180E390E00E94DF031C
:10071000A2FE17C0A1FC03C088E790E002C088E5F4
:1007200090E0B6010CC08A2D867859F0A1FE02C077
:100730008BE201C080E2A7FC8DE2B60190E00E944E
:10074000DF03891438F4B60180E390E00E94DF03F0
:100750009A94F7CF8A94F301E80DF11D8081B601D8
:1007600090E00E94DF038110F5CF222009F442CEF1
:10077000B60180E290E00E94DF032A94F6CFF601F2
:100780008681978102C08FEF9FEF2B96E2E10C9458
:100790009504FC010590615070400110D8F78095D8
:1007A00090958E0F9F1F0895FC016150704001903D
:1007B0000110D8F7809590958E0F9F1F08950F9385
:1007C0001F93CF93DF93FB01238121FD03C08FEFA4
:1007D0009FEF2CC022FF16C04681578124813581AE
:1007E0004217530744F4A081B1819D012F5F3F4F11
:1007F000318320838C93268137812F5F3F4F37834E
:10080000268314C08B01EC01FB010084F185E02DEF
:100810000995892BE1F6D80116968D919C91179731
:10082000019617969C938E931697CE01DF91CF91E8
:100830001F910F910895FA01AA27283051F1203114
:1008400081F1E8946F936E7F6E5F7F4F8F4F9F4F64
:10085000AF4FB1E03ED0B4E03CD0670F781F891FA6
:100860009A1FA11D680F791F8A1F911DA11D6A0F74
:10087000711D811D911DA11D20D009F468943F9127
:100880002AE0269F11243019305D3193DEF6CF0126
:100890000895462F4770405D4193B3E00FD0C9F7EC
:1008A000F6CF462F4F70405D4A3318F0495D31FD59
:1008B0004052419302D0A9F7EACFB4E0A6959795AC
:1008C000879577956795BA95C9F700976105710582
:1008D00008959B01AC010A2E0694579547953795CC
:1008E0002795BA95C9F7620F731F841F951FA01D26
:1008F00008952F923F924F925F926F927F928F92C4
:100900009F92AF92BF92CF92DF92EF92FF920F939E
:100910001F93CF93DF93CDB7DEB7CA1BDB0B0FB6A8
:10092000F894DEBF0FBECDBF09942A883988488865
:100930005F846E847D848C849B84AA84B984C884FB
:10094000DF80EE80FD800C811B81AA81B981CE0FF2
:10095000D11D0FB6F894DEBF0FBECDBFED010895D7
:04096000F894FFCF39
:1009640074696D65203A002564006F6E65206461CA
:0A0974007920706173736564000060
:00000001FF
